{
  "_format": "hh-sol-artifact-1",
  "contractName": "ZKVote",
  "sourceName": "contracts/ZKVote.sol",
  "abi": [
    {
      "inputs": [
        {
          "internalType": "address",
          "name": "semaphoreAddress",
          "type": "address"
        }
      ],
      "stateMutability": "nonpayable",
      "type": "constructor"
    },
    {
      "inputs": [
        {
          "internalType": "string",
          "name": "option",
          "type": "string"
        }
      ],
      "name": "addVoteOption",
      "outputs": [],
      "stateMutability": "nonpayable",
      "type": "function"
    },
    {
      "inputs": [
        {
          "internalType": "uint256",
          "name": "merkleTreeDepth",
          "type": "uint256"
        },
        {
          "internalType": "uint256",
          "name": "merkleTreeRoot",
          "type": "uint256"
        },
        {
          "internalType": "uint256",
          "name": "nullifier",
          "type": "uint256"
        },
        {
          "internalType": "uint256",
          "name": "voteOption",
          "type": "uint256"
        },
        {
          "internalType": "uint256[8]",
          "name": "points",
          "type": "uint256[8]"
        }
      ],
      "name": "castVote",
      "outputs": [],
      "stateMutability": "nonpayable",
      "type": "function"
    },
    {
      "inputs": [
        {
          "internalType": "uint256",
          "name": "optionIndex",
          "type": "uint256"
        }
      ],
      "name": "getVoteCount",
      "outputs": [
        {
          "internalType": "uint256",
          "name": "",
          "type": "uint256"
        }
      ],
      "stateMutability": "view",
      "type": "function"
    },
    {
      "inputs": [],
      "name": "getVoteOptions",
      "outputs": [
        {
          "internalType": "string[]",
          "name": "",
          "type": "string[]"
        }
      ],
      "stateMutability": "view",
      "type": "function"
    },
    {
      "inputs": [],
      "name": "groupId",
      "outputs": [
        {
          "internalType": "uint256",
          "name": "",
          "type": "uint256"
        }
      ],
      "stateMutability": "view",
      "type": "function"
    },
    {
      "inputs": [
        {
          "internalType": "uint256",
          "name": "identityCommitment",
          "type": "uint256"
        }
      ],
      "name": "joinGroup",
      "outputs": [],
      "stateMutability": "nonpayable",
      "type": "function"
    },
    {
      "inputs": [],
      "name": "semaphore",
      "outputs": [
        {
          "internalType": "contract ISemaphore",
          "name": "",
          "type": "address"
        }
      ],
      "stateMutability": "view",
      "type": "function"
    },
    {
      "inputs": [
        {
          "internalType": "bool",
          "name": "active",
          "type": "bool"
        }
      ],
      "name": "setVotingActive",
      "outputs": [],
      "stateMutability": "nonpayable",
      "type": "function"
    },
    {
      "inputs": [
        {
          "internalType": "uint256",
          "name": "",
          "type": "uint256"
        }
      ],
      "name": "voteCounts",
      "outputs": [
        {
          "internalType": "uint256",
          "name": "",
          "type": "uint256"
        }
      ],
      "stateMutability": "view",
      "type": "function"
    },
    {
      "inputs": [
        {
          "internalType": "uint256",
          "name": "",
          "type": "uint256"
        }
      ],
      "name": "voteOptions",
      "outputs": [
        {
          "internalType": "string",
          "name": "",
          "type": "string"
        }
      ],
      "stateMutability": "view",
      "type": "function"
    },
    {
      "inputs": [],
      "name": "votingActive",
      "outputs": [
        {
          "internalType": "bool",
          "name": "",
          "type": "bool"
        }
      ],
      "stateMutability": "view",
      "type": "function"
    }
  ],
  "bytecode": "0x60806040523480156200001157600080fd5b5060405162001548380380620015488339818101604052810190620000379190620001ae565b806000806101000a81548173ffffffffffffffffffffffffffffffffffffffff021916908373ffffffffffffffffffffffffffffffffffffffff16021790555060008054906101000a900473ffffffffffffffffffffffffffffffffffffffff1673ffffffffffffffffffffffffffffffffffffffff16632c88036330610e106040518363ffffffff1660e01b8152600401620000d692919062000248565b6020604051808303816000875af1158015620000f6573d6000803e3d6000fd5b505050506040513d601f19601f820116820180604052508101906200011c9190620002a6565b6001819055506001600460006101000a81548160ff02191690831515021790555050620002d8565b600080fd5b600073ffffffffffffffffffffffffffffffffffffffff82169050919050565b6000620001768262000149565b9050919050565b620001888162000169565b81146200019457600080fd5b50565b600081519050620001a8816200017d565b92915050565b600060208284031215620001c757620001c662000144565b5b6000620001d78482850162000197565b91505092915050565b620001eb8162000169565b82525050565b6000819050919050565b6000819050919050565b6000819050919050565b6000620002306200022a6200022484620001f1565b62000205565b620001fb565b9050919050565b62000242816200020f565b82525050565b60006040820190506200025f6000830185620001e0565b6200026e602083018462000237565b9392505050565b6200028081620001fb565b81146200028c57600080fd5b50565b600081519050620002a08162000275565b92915050565b600060208284031215620002bf57620002be62000144565b5b6000620002cf848285016200028f565b91505092915050565b61126080620002e86000396000f3fe608060405234801561001057600080fd5b50600436106100a95760003560e01c80637b5d2534116100715780637b5d2534146101645780637b8d060214610182578063a0f44c92146101a0578063b2c2f2e8146101be578063b94617d5146101ee578063eed02e4b1461020a576100a9565b8063105c63ea146100ae5780633c3a220d146100ca578063408e2727146100fa5780634704d8ec14610118578063623a789714610148575b600080fd5b6100c860048036038101906100c39190610733565b610226565b005b6100e460048036038101906100df91906107af565b6103e4565b6040516100f191906107eb565b60405180910390f35b6101026103fc565b60405161010f9190610821565b60405180910390f35b610132600480360381019061012d91906107af565b61040f565b60405161013f91906108cc565b60405180910390f35b610162600480360381019061015d919061091a565b6104bb565b005b61016c6104d8565b60405161017991906109c6565b60405180910390f35b61018a6104fc565b6040516101979190610aed565b60405180910390f35b6101a86105d5565b6040516101b591906107eb565b60405180910390f35b6101d860048036038101906101d391906107af565b6105db565b6040516101e591906107eb565b60405180910390f35b61020860048036038101906102039190610c44565b6105f8565b005b610224600480360381019061021f91906107af565b610630565b005b600460009054906101000a900460ff16610275576040517f08c379a000000000000000000000000000000000000000000000000000000000815260040161026c90610cd9565b60405180910390fd5b60028054905082106102bc576040517f08c379a00000000000000000000000000000000000000000000000000000000081526004016102b390610d45565b60405180910390fd5b60006040518060c001604052808781526020018681526020018581526020018481526020016001548152602001836008806020026040519081016040528092919082600860200280828437600081840152601f19601f820116905080830192505050505050815250905060008054906101000a900473ffffffffffffffffffffffffffffffffffffffff1673ffffffffffffffffffffffffffffffffffffffff1663d0d898dd600154836040518363ffffffff1660e01b8152600401610383929190610e8c565b60006040518083038186803b15801561039b57600080fd5b505afa1580156103af573d6000803e3d6000fd5b505050506003600084815260200190815260200160002060008154809291906103d790610ee5565b9190505550505050505050565b60036020528060005260406000206000915090505481565b600460009054906101000a900460ff1681565b6002818154811061041f57600080fd5b90600052602060002001600091509050805461043a90610f5c565b80601f016020809104026020016040519081016040528092919081815260200182805461046690610f5c565b80156104b35780601f10610488576101008083540402835291602001916104b3565b820191906000526020600020905b81548152906001019060200180831161049657829003601f168201915b505050505081565b80600460006101000a81548160ff02191690831515021790555050565b60008054906101000a900473ffffffffffffffffffffffffffffffffffffffff1681565b60606002805480602002602001604051908101604052809291908181526020016000905b828210156105cc57838290600052602060002001805461053f90610f5c565b80601f016020809104026020016040519081016040528092919081815260200182805461056b90610f5c565b80156105b85780601f1061058d576101008083540402835291602001916105b8565b820191906000526020600020905b81548152906001019060200180831161059b57829003601f168201915b505050505081526020019060010190610520565b50505050905090565b60015481565b600060036000838152602001908152602001600020549050919050565b60028190806001815401808255809150506001900390600052602060002001600090919091909150908161062c919061112f565b5050565b60008054906101000a900473ffffffffffffffffffffffffffffffffffffffff1673ffffffffffffffffffffffffffffffffffffffff16631783efc3600154836040518363ffffffff1660e01b815260040161068d929190611201565b600060405180830381600087803b1580156106a757600080fd5b505af11580156106bb573d6000803e3d6000fd5b5050505050565b6000604051905090565b600080fd5b600080fd5b6000819050919050565b6106e9816106d6565b81146106f457600080fd5b50565b600081359050610706816106e0565b92915050565b600080fd5b60008190508260206008028201111561072d5761072c61070c565b5b92915050565b600080600080600061018086880312156107505761074f6106cc565b5b600061075e888289016106f7565b955050602061076f888289016106f7565b9450506040610780888289016106f7565b9350506060610791888289016106f7565b92505060806107a288828901610711565b9150509295509295909350565b6000602082840312156107c5576107c46106cc565b5b60006107d3848285016106f7565b91505092915050565b6107e5816106d6565b82525050565b600060208201905061080060008301846107dc565b92915050565b60008115159050919050565b61081b81610806565b82525050565b60006020820190506108366000830184610812565b92915050565b600081519050919050565b600082825260208201905092915050565b60005b8381101561087657808201518184015260208101905061085b565b60008484015250505050565b6000601f19601f8301169050919050565b600061089e8261083c565b6108a88185610847565b93506108b8818560208601610858565b6108c181610882565b840191505092915050565b600060208201905081810360008301526108e68184610893565b905092915050565b6108f781610806565b811461090257600080fd5b50565b600081359050610914816108ee565b92915050565b6000602082840312156109305761092f6106cc565b5b600061093e84828501610905565b91505092915050565b600073ffffffffffffffffffffffffffffffffffffffff82169050919050565b6000819050919050565b600061098c61098761098284610947565b610967565b610947565b9050919050565b600061099e82610971565b9050919050565b60006109b082610993565b9050919050565b6109c0816109a5565b82525050565b60006020820190506109db60008301846109b7565b92915050565b600081519050919050565b600082825260208201905092915050565b6000819050602082019050919050565b600082825260208201905092915050565b6000610a298261083c565b610a338185610a0d565b9350610a43818560208601610858565b610a4c81610882565b840191505092915050565b6000610a638383610a1e565b905092915050565b6000602082019050919050565b6000610a83826109e1565b610a8d81856109ec565b935083602082028501610a9f856109fd565b8060005b85811015610adb5784840389528151610abc8582610a57565b9450610ac783610a6b565b925060208a01995050600181019050610aa3565b50829750879550505050505092915050565b60006020820190508181036000830152610b078184610a78565b905092915050565b600080fd5b600080fd5b7f4e487b7100000000000000000000000000000000000000000000000000000000600052604160045260246000fd5b610b5182610882565b810181811067ffffffffffffffff82111715610b7057610b6f610b19565b5b80604052505050565b6000610b836106c2565b9050610b8f8282610b48565b919050565b600067ffffffffffffffff821115610baf57610bae610b19565b5b610bb882610882565b9050602081019050919050565b82818337600083830152505050565b6000610be7610be284610b94565b610b79565b905082815260208101848484011115610c0357610c02610b14565b5b610c0e848285610bc5565b509392505050565b600082601f830112610c2b57610c2a610b0f565b5b8135610c3b848260208601610bd4565b91505092915050565b600060208284031215610c5a57610c596106cc565b5b600082013567ffffffffffffffff811115610c7857610c776106d1565b5b610c8484828501610c16565b91505092915050565b7f566f74696e67206973206e6f7420616374697665000000000000000000000000600082015250565b6000610cc3601483610847565b9150610cce82610c8d565b602082019050919050565b60006020820190508181036000830152610cf281610cb6565b9050919050565b7f496e76616c696420766f7465206f7074696f6e00000000000000000000000000600082015250565b6000610d2f601383610847565b9150610d3a82610cf9565b602082019050919050565b60006020820190508181036000830152610d5e81610d22565b9050919050565b610d6e816106d6565b82525050565b600060089050919050565b600081905092915050565b6000819050919050565b6000610da08383610d65565b60208301905092915050565b6000602082019050919050565b610dc281610d74565b610dcc8184610d7f565b9250610dd782610d8a565b8060005b83811015610e08578151610def8782610d94565b9650610dfa83610dac565b925050600181019050610ddb565b505050505050565b6101a082016000820151610e276000850182610d65565b506020820151610e3a6020850182610d65565b506040820151610e4d6040850182610d65565b506060820151610e606060850182610d65565b506080820151610e736080850182610d65565b5060a0820151610e8660a0850182610db9565b50505050565b60006101c082019050610ea260008301856107dc565b610eaf6020830184610e10565b9392505050565b7f4e487b7100000000000000000000000000000000000000000000000000000000600052601160045260246000fd5b6000610ef0826106d6565b91507fffffffffffffffffffffffffffffffffffffffffffffffffffffffffffffffff8203610f2257610f21610eb6565b5b600182019050919050565b7f4e487b7100000000000000000000000000000000000000000000000000000000600052602260045260246000fd5b60006002820490506001821680610f7457607f821691505b602082108103610f8757610f86610f2d565b5b50919050565b60008190508160005260206000209050919050565b60006020601f8301049050919050565b600082821b905092915050565b600060088302610fef7fffffffffffffffffffffffffffffffffffffffffffffffffffffffffffffffff82610fb2565b610ff98683610fb2565b95508019841693508086168417925050509392505050565b600061102c611027611022846106d6565b610967565b6106d6565b9050919050565b6000819050919050565b61104683611011565b61105a61105282611033565b848454610fbf565b825550505050565b600090565b61106f611062565b61107a81848461103d565b505050565b5b8181101561109e57611093600082611067565b600181019050611080565b5050565b601f8211156110e3576110b481610f8d565b6110bd84610fa2565b810160208510156110cc578190505b6110e06110d885610fa2565b83018261107f565b50505b505050565b600082821c905092915050565b6000611106600019846008026110e8565b1980831691505092915050565b600061111f83836110f5565b9150826002028217905092915050565b6111388261083c565b67ffffffffffffffff81111561115157611150610b19565b5b61115b8254610f5c565b6111668282856110a2565b600060209050601f8311600181146111995760008415611187578287015190505b6111918582611113565b8655506111f9565b601f1984166111a786610f8d565b60005b828110156111cf578489015182556001820191506020850194506020810190506111aa565b868310156111ec57848901516111e8601f8916826110f5565b8355505b6001600288020188555050505b505050505050565b600060408201905061121660008301856107dc565b61122360208301846107dc565b939250505056fea2646970667358221220c01cc9d7508230dac31b6337205a7370399f44a019f76e5ea00aa2d839fbe4c264736f6c63430008170033",
  "linkReferences": {},
  "deployedLinkReferences": {}
}